:100000000C9435010C9466010C9466010C94660105
:100010000C9466010C9466010C9466010C946601C4
:100020000C9466010C9466010C9466010C946601B4
:100030000C9466010C9466010C9466010C946601A4
:100040000C9466010C9466010C9466010C94660194
:100050000C9466010C9466010C9466010C94560491
:100060000C9466010C9420040C94F6030C94660125
:100070000C9466010C9466010C9466010C94660164
:100080000C9466010C9466010C9466010C94660154
:100090000C9466010C9466010C9466010C94660144
:1000A0000C9466010C9466010C9466010C94660134
:1000B0000C9466010C9466010C9466010C94660124
:1000C0000C9466010C9466010C9466010C94660114
:1000D0000C9466010C9466010C9466010C94660104
:1000E0000C9466010C94E3020C94C6010C949501E7
:1000F0000C9422030C9410030C944B020C940203F6
:100100000C94F2020C940A030C94EF020C94400637
:100110000C94EB020C9406030C94E7020C94180365
:100120000C94FE010C94CC020C94FC020C94D102B1
:100130000C9414030C94A4010C9468010C94F80220
:100140000C941E030C94B80100000A0B02090C0D5C
:100150000E0807030401000000000000000000007A
:10016000000000000000000000000000000000008F
:10017000000000001211100000000000000000004C
:10018000000000000000000000000000000000006F
:100190002200250028002B002E003100340002012F
:1001A0000000050108010B010000210024002700C8
:1001B0002A002D0030003300010100000401070176
:1001C0000A01000020002300260029002C002F0037
:1001D00032000001000003010601090105050505C3
:1001E000070508080808020202020A0A08080404AF
:1001F00004040101010101010101030303030303DD
:100200000303040707070C0C0C0C0C0C0C0C02026B
:10021000020206060606060606060B0B0B0B0B0B68
:100220000B0B0102102020080810204010204080F5
:1002300002010201080402010102040810204080AA
:100240008040201008040201800402018040201038
:100250000804020108040201010204081020408081
:100260000102040810204080400611241FBECFEF79
:10027000D1E2DEBFCDBF00E00CBF12E0A0E0B2E0F3
:10028000E4E9FFE000E00BBF02C007900D92A63149
:10029000B107D9F722E0A6E1B2E001C01D92AE3B62
:1002A000B207E1F711E0C5E3D1E000E006C0219715
:1002B0000109802FFE010E94C007C433D10780E0EE
:1002C0000807A9F70E94E5040C94C8070C940000E5
:1002D000AF92BF92CF92DF92EF92FF920F931F9354
:1002E000CF93DF936C017B018B01040F151FEB0192
:1002F0005E01AE18BF08C017D10759F06991D60149
:10030000ED91FC910190F081E02DC6011995892BAA
:1003100079F7C501DF91CF911F910F91FF90EF9079
:10032000DF90CF90BF90AF900895FC01538D448D26
:10033000252F30E0842F90E0821B930B541710F090
:10034000CF96089501970895FC01918D828D98179D
:1003500061F0A28DAE0FBF2FB11D5D968C91928D75
:100360009F5F9F73928F90E008958FEF9FEF0895A6
:10037000FC01918D828D981731F0828DE80FF11D6F
:10038000858D90E008958FEF9FEF0895FC01918D8A
:10039000228D892F90E0805C9F4F821B91098F7383
:1003A0009927089581E292E00E94C60121E0892BFD
:1003B00009F420E0822F0895FC01A48DA80FB92F25
:1003C000B11DA35ABF4F2C91848D90E001968F737D
:1003D0009927848FA689B7892C93A089B1898C919C
:1003E000837080648C93938D848D981306C00288EB
:1003F000F389E02D80818F7D80830895EF92FF92B5
:100400000F931F93CF93DF93EC0181E0888F9B8D37
:100410008C8D98131AC0E889F989808185FF15C0F1
:100420009FB7F894EE89FF896083E889F989808114
:100430008370806480839FBF81E090E0DF91CF91E3
:100440001F910F91FF90EF900895F62E0B8D10E005
:100450000F5F1F4F0F731127E02E8C8D8E110CC074
:100460000FB607FCFACFE889F989808185FFF5CFBF
:10047000CE010E94DC01F1CFEB8DEC0FFD2FF11DC1
:10048000E35AFF4FF0829FB7F8940B8FEA89FB89FC
:1004900080818062CFCFCF93DF93EC01888D88235A
:1004A000B9F0AA89BB89E889F9898C9185FD03C0D7
:1004B000808186FD0DC00FB607FCF7CF8C9185FFBC
:1004C000F2CF808185FFEDCFCE010E94DC01E9CF24
:1004D000DF91CF91089580E090E0892B29F00E9470
:1004E000D20181110E94000080E090E0892B49F048
:1004F00080E090E0892B29F00E94000081110E9489
:10050000000080E090E0892B49F080E090E0892BAA
:1005100029F00E94000081110E94000080E090E01C
:10052000892B49F080E090E0892B29F00E9400009F
:1005300081110C9400000895282F30E0F901E85B48
:10054000FE4F9491F901EE5DFD4F449124523E4FD0
:10055000F9012491222309F435C0992311F1915016
:100560009231F8F4E92FF0E08827E654FD4F8F4FE1
:100570000C94C007EB02EF02CC02E302E702D102C7
:10058000F202F802FC02020306030A03100314033A
:10059000D10218031E032203809180008F7780937D
:1005A0008000E22FF0E0EE0FFF1FE257FE4FA59113
:1005B000B4918FB7F894EC91611148C040954E23E7
:1005C0004C938FBF0895809180008F7DE8CF8091FC
:1005D0008000877FE4CF84B58F7784BDE2CF84B578
:1005E0008F7DFBCF8091B0008F778093B000D9CF03
:1005F0008091B0008F7DF9CF809190008F778093AC
:100600009000CFCF809190008F7DF9CF80919000A6
:10061000877FF5CF8091A0008F778093A000C1CF16
:100620008091A0008F7DF9CF8091A000877FF5CFCA
:10063000809120018F7780932001B3CF809120019A
:100640008F7DF9CF80912001877FF5CF4E2BB8CFDA
:100650003FB7F89480911B0290911C02A0911D025B
:10066000B0911E0226B5A89B05C02F3F19F0019638
:10067000A11DB11D3FBFBA2FA92F982F8827BC01FC
:10068000CD01620F711D811D911D42E0660F771F24
:10069000881F991F4A95D1F708958F929F92AF9224
:1006A000BF92CF92DF92EF92FF924B015C010E94CA
:1006B00028036B017C010E9428036C197D098E09B7
:1006C0009F09683E734081059105A8F321E0821AD5
:1006D0009108A108B10888EEC80E83E0D81EE11C7D
:1006E000F11C81149104A104B10429F7FF90EF904B
:1006F000DF90CF90BF90AF909F908F9008958F9292
:100700009F92AF92BF920F931F93CF93DF93CDB77A
:10071000DEB7A1970FB6F894DEBF0FBECDBF19A20A
:10072000423008F44AE08E010F5D1F4F842E912C59
:10073000B12CA12CA50194010E949E07E62FB901BE
:10074000CA01EA3044F5E05DD801EE938D01232B18
:10075000242B252B79F790E080E0109769F0FD01BC
:1007600001900020E9F73197AF014A1B5B0BBD01F7
:1007700081E292E00E946801A1960FB6F894DEBF74
:100780000FBECDBFDF91CF911F910F91BF90AF9062
:100790009F908F900895E95CD7CFCF92DF92EF9230
:1007A000FF92CF93DF936B017C016DE281E292E0D7
:1007B0000E94FE01EC0166277727CB016C197D09A9
:1007C0008E099F094AE00E947F038C0F9D1FDF91D5
:1007D000CF91FF90EF90DF90CF90089542E050E0EE
:1007E00062E172E081E292E00C9468011F920F9244
:1007F0000FB60F9211240BB60F922F933F934F9386
:100800005F936F937F938F939F93AF93BF93EF9378
:10081000FF9381E292E00E94DC01FF91EF91BF9192
:10082000AF919F918F917F916F915F914F913F9188
:100830002F910F900BBE0F900FBE0F901F90189529
:100840001F920F920FB60F9211240BB60F922F9397
:100850008F939F93EF93FF93E0913102F0913202D7
:100860008081E0913702F091380282FD1DC09081B5
:1008700080913A028F5F8F7320913B02821741F083
:10088000E0913A02F0E0EF5DFD4F958F80933A02E0
:10089000FF91EF919F918F912F910F900BBE0F9031
:1008A0000FBE0F901F9018958081F2CF1F920F926C
:1008B0000FB60F9211242F933F938F939F93AF9373
:1008C000BF938091170290911802A0911902B091E4
:1008D0001A023091160223E0230F2D3758F50196A6
:1008E000A11DB11D20931602809317029093180248
:1008F000A0931902B0931A0280911B0290911C02DE
:10090000A0911D02B0911E020196A11DB11D809300
:100910001B0290931C02A0931D02B0931E02BF9174
:10092000AF919F918F913F912F910F900FBE0F909C
:100930001F90189526E8230F0296A11DB11DD2CF56
:10094000CF92DF92EF92FF920F931F93E82FF92F30
:1009500005C0015011092109310961F190819623E7
:100960009417B9F305C0015011092109310911F19A
:10097000908196239413F7CFC12CD12CE12CF12C2C
:100980000AC08FEFC81AD80AE80AF80A0C151D0524
:100990002E053F0579F080818623841791F36C2D15
:1009A0007D2D8E2D9F2D1F910F91FF90EF90DF9049
:1009B000CF90089560E070E080E090E01F910F918B
:1009C000FF90EF90DF90CF900895789484B5826087
:1009D00084BD84B5816084BD85B5826085BD85B5E3
:1009E000816085BD80916E00816080936E00109261
:1009F00081008091810082608093810080918100DC
:100A0000816080938100809180008160809380006C
:100A10008091B10084608093B1008091B0008160CA
:100A20008093B000809191008260809391008091CA
:100A3000910081608093910080919000816080930B
:100A400090008091A10082608093A1008091A1001C
:100A500081608093A1008091A00081608093A000BC
:100A60008091210182608093210180912101816028
:100A700080932101809120018160809320018091E9
:100A80007A00846080937A0080917A0082608093FB
:100A90007A0080917A00816080937A0080917A0058
:100AA000806880937A001092C100C4E2D2E0FE0117
:100AB00024915EEDE52E51E0F52EF7018491882317
:100AC000C9F090E0880F991FFC01E855FE4FA591F1
:100AD000B491FC01E257FE4F459154913FB7F89411
:100AE0009C91822F809598239C93FA019081892371
:100AF00080833FBFE5E2F2E02491EFEDF1E08491E5
:100B0000882399F090E0880F991FFC01E855FE4F6B
:100B1000A591B491FC01E257FE4F859194918FB756
:100B2000F894EC91E22BEC938FBFE0913102F091BD
:100B3000320282E08083E0912D02F0912E02108239
:100B4000E0912F02F09130028FEC808310923902F5
:100B5000E0913502F091360286E08083E091330225
:100B6000F0913402808180618083E0913302F091C2
:100B70003402808188608083E0913302F0913402F6
:100B8000808180688083E0913302F091340280811B
:100B90008F7D808393E0C92ED12C23E2A22EB12C2D
:100BA00060E083E00E949C02C6010197F1F761E0DA
:100BB00083E00E949C02C5010197F1F760E083E0A9
:100BC0000E949C02FE016491F7018491E82FF0E0FD
:100BD000EE0FFF1FEE53FE4F8591949100E412E457
:100BE0002FE030E0462F0E94A004611571058105B9
:100BF000910529F06F5F7F4F8F4F9F4F9F700E942D
:100C0000A30626E933E44BE05DE30E94090720E0F8
:100C100030E040E05FE30E9409070E946D06709398
:100C2000200260931F02072E000C880B990B97FF80
:100C300023C00E94CD030E94EE0368EC70E080E0C8
:100C400090E00E944D0380911F02909120020B972B
:100C5000879778F44AE061E070E080E090E00E94DD
:100C60007F030E94EE0360E971E080E090E00E9463
:100C70004D030E946B0294CF4AE00E947F03DBCFBA
:100C8000E1E2F2E01382128288EE93E0A0E0B0E0AD
:100C900084839583A683B78384E092E091838083E5
:100CA00085EC90E09587848784EC90E09787868731
:100CB00080EC90E0918B808B81EC90E0938B828B29
:100CC00082EC90E0958B848B86EC90E0978B868B02
:100CD000118E128E138E148E08950E9474066894DD
:100CE000B1110C94030708950E94E80688F09F57FD
:100CF00098F0B92F9927B751B0F0E1F0660F771F40
:100D0000881F991F1AF0BA95C9F714C0B13091F035
:100D10000E940207B1E008950C940207672F782F14
:100D20008827B85F39F0B93FCCF3869577956795FA
:100D3000B395D9F73EF490958095709561957F4F66
:100D40008F4F9F4F0895E89409C097FB3EF490950C
:100D50008095709561957F4F8F4F9F4F9923A9F094
:100D6000F92F96E9BB279395F69587957795679523
:100D7000B795F111F8CFFAF4BB0F11F460FF1BC067
:100D80006F5F7F4F8F4F9F4F16C0882311F096E9FA
:100D900011C0772321F09EE8872F762F05C06623A8
:100DA00071F096E8862F70E060E02AF09A95660F61
:100DB000771F881FDAF7880F9695879597F908951A
:100DC00057FD9058440F551F59F05F3F71F04795FC
:100DD000880F97FB991F61F09F3F79F087950895E1
:100DE000121613061406551FF2CF4695F1DF08C000
:100DF000161617061806991FF1CF8695710561051D
:100E000008940895E894BB2766277727CB0197F9C4
:100E100008950E941C070C948D070E947F0738F0EC
:100E20000E94860720F0952311F00C9476070C940D
:100E30007C0711240C9403070E94E00670F3959F31
:100E4000C1F3950F50E0551F629FF001729FBB27C1
:100E5000F00DB11D639FAA27F00DB11DAA1F649F5D
:100E60006627B00DA11D661F829F2227B00DA11D10
:100E7000621F739FB00DA11D621F839FA00D611D96
:100E8000221F749F3327A00D611D231F849F600DB7
:100E9000211D822F762F6A2F11249F5750409AF0E0
:100EA000F1F088234AF0EE0FFF1FBB1F661F771F6C
:100EB000881F91505040A9F79E3F510580F00C9437
:100EC00076070C9403075F3FE4F3983ED4F38695CE
:100ED00077956795B795F795E7959F5FC1F7FE2BD7
:100EE000880F911D9695879597F9089597F99F67B3
:100EF00080E870E060E008959FEF80EC08950024A2
:100F00000A941616170618060906089500240A946E
:100F100012161306140605060895092E0394000CF4
:100F200011F4882352F0BB0F40F4BF2B11F460FF83
:100F300004C06F5F7F4F8F4F9F4F0895A1E21A2E1D
:100F4000AA1BBB1BFD010DC0AA1FBB1FEE1FFF1F6D
:100F5000A217B307E407F50720F0A21BB30BE40BBD
:100F6000F50B661F771F881F991F1A9469F7609504
:100F70007095809590959B01AC01BD01CF010895BE
:100F8000EE0FFF1F881F8BBF0790F691E02D19947D
:040F9000F894FFCF03
:100F940000000000FE01680195014B02C601A40196
:060FA400B8010D0A000077
:00000001FF
